{
  "_format": "hh-sol-artifact-1",
  "contractName": "LotteryDAP",
  "sourceName": "contracts/LotteryDAP.sol",
  "abi": [
    {
      "inputs": [],
      "stateMutability": "nonpayable",
      "type": "constructor"
    },
    {
      "inputs": [],
      "name": "balance",
      "outputs": [
        {
          "internalType": "uint256",
          "name": "",
          "type": "uint256"
        }
      ],
      "stateMutability": "view",
      "type": "function"
    },
    {
      "inputs": [],
      "name": "getBalance",
      "outputs": [
        {
          "internalType": "uint256",
          "name": "",
          "type": "uint256"
        }
      ],
      "stateMutability": "view",
      "type": "function"
    },
    {
      "inputs": [],
      "name": "getParticipants",
      "outputs": [
        {
          "components": [
            {
              "internalType": "address payable",
              "name": "participantAddress",
              "type": "address"
            },
            {
              "internalType": "string",
              "name": "message",
              "type": "string"
            },
            {
              "internalType": "string",
              "name": "keyword",
              "type": "string"
            },
            {
              "internalType": "uint256",
              "name": "createdAt",
              "type": "uint256"
            }
          ],
          "internalType": "struct LotteryDAP.Participant[]",
          "name": "",
          "type": "tuple[]"
        }
      ],
      "stateMutability": "view",
      "type": "function"
    },
    {
      "inputs": [],
      "name": "getWinner",
      "outputs": [
        {
          "internalType": "address",
          "name": "",
          "type": "address"
        }
      ],
      "stateMutability": "nonpayable",
      "type": "function"
    },
    {
      "inputs": [],
      "name": "manager",
      "outputs": [
        {
          "internalType": "address payable",
          "name": "",
          "type": "address"
        }
      ],
      "stateMutability": "view",
      "type": "function"
    },
    {
      "inputs": [],
      "name": "noOfParticipants",
      "outputs": [
        {
          "internalType": "uint256",
          "name": "",
          "type": "uint256"
        }
      ],
      "stateMutability": "view",
      "type": "function"
    },
    {
      "inputs": [
        {
          "internalType": "uint256",
          "name": "",
          "type": "uint256"
        }
      ],
      "name": "participants",
      "outputs": [
        {
          "internalType": "address payable",
          "name": "participantAddress",
          "type": "address"
        },
        {
          "internalType": "string",
          "name": "message",
          "type": "string"
        },
        {
          "internalType": "string",
          "name": "keyword",
          "type": "string"
        },
        {
          "internalType": "uint256",
          "name": "createdAt",
          "type": "uint256"
        }
      ],
      "stateMutability": "view",
      "type": "function"
    },
    {
      "inputs": [
        {
          "internalType": "string",
          "name": "_message",
          "type": "string"
        },
        {
          "internalType": "string",
          "name": "_keyword",
          "type": "string"
        }
      ],
      "name": "setParticiapnt",
      "outputs": [],
      "stateMutability": "nonpayable",
      "type": "function"
    }
  ],
  "bytecode": "0x608060405234801561001057600080fd5b506000600281905550336000806101000a81548173ffffffffffffffffffffffffffffffffffffffff021916908373ffffffffffffffffffffffffffffffffffffffff160217905550610ff9806100686000396000f3fe608060405234801561001057600080fd5b50600436106100885760003560e01c8063481c6a751161005b578063481c6a75146101185780635aa68ac0146101365780638e7ea5b214610154578063b69ef8a81461017257610088565b806305e0c7791461008d57806308726296146100a957806312065fe0146100c757806335c1d349146100e5575b600080fd5b6100a760048036038101906100a29190610966565b610190565b005b6100b16102d9565b6040516100be9190610caa565b60405180910390f35b6100cf6102df565b6040516100dc9190610caa565b60405180910390f35b6100ff60048036038101906100fa91906109d2565b6102e9565b60405161010f9493929190610c35565b60405180910390f35b610120610459565b60405161012d9190610c1a565b60405180910390f35b61013e61047d565b60405161014b9190610c88565b60405180910390f35b61015c610660565b6040516101699190610bff565b60405180910390f35b61017a610738565b6040516101879190610caa565b60405180910390f35b61019861073e565b33816000019073ffffffffffffffffffffffffffffffffffffffff16908173ffffffffffffffffffffffffffffffffffffffff168152505082816020018190525081816040018190525042816060018181525050600181908060018154018082558091505060019003906000526020600020906004020160009091909190915060008201518160000160006101000a81548173ffffffffffffffffffffffffffffffffffffffff021916908373ffffffffffffffffffffffffffffffffffffffff160217905550602082015181600101908051906020019061027b92919061077c565b50604082015181600201908051906020019061029892919061077c565b506060820151816003015550506001600260008282546102b89190610d8c565b9250508190555060016003546102ce9190610d8c565b600381905550505050565b60025481565b6000600354905090565b600181815481106102f957600080fd5b90600052602060002090600402016000915090508060000160009054906101000a900473ffffffffffffffffffffffffffffffffffffffff169080600101805461034290610e72565b80601f016020809104026020016040519081016040528092919081815260200182805461036e90610e72565b80156103bb5780601f10610390576101008083540402835291602001916103bb565b820191906000526020600020905b81548152906001019060200180831161039e57829003601f168201915b5050505050908060020180546103d090610e72565b80601f01602080910402602001604051908101604052809291908181526020018280546103fc90610e72565b80156104495780601f1061041e57610100808354040283529160200191610449565b820191906000526020600020905b81548152906001019060200180831161042c57829003601f168201915b5050505050908060030154905084565b60008054906101000a900473ffffffffffffffffffffffffffffffffffffffff1681565b60606001805480602002602001604051908101604052809291908181526020016000905b8282101561065757838290600052602060002090600402016040518060800160405290816000820160009054906101000a900473ffffffffffffffffffffffffffffffffffffffff1673ffffffffffffffffffffffffffffffffffffffff1673ffffffffffffffffffffffffffffffffffffffff16815260200160018201805461052a90610e72565b80601f016020809104026020016040519081016040528092919081815260200182805461055690610e72565b80156105a35780601f10610578576101008083540402835291602001916105a3565b820191906000526020600020905b81548152906001019060200180831161058657829003601f168201915b505050505081526020016002820180546105bc90610e72565b80601f01602080910402602001604051908101604052809291908181526020018280546105e890610e72565b80156106355780601f1061060a57610100808354040283529160200191610635565b820191906000526020600020905b81548152906001019060200180831161061857829003601f168201915b50505050508152602001600382015481525050815260200190600101906104a1565b50505050905090565b600080600254444260025460405160200161067d93929190610bc2565b6040516020818303038152906040528051906020012060001c6106a09190610eae565b90506000600182815481106106de577f4e487b7100000000000000000000000000000000000000000000000000000000600052603260045260246000fd5b906000526020600020906004020160000160009054906101000a900473ffffffffffffffffffffffffffffffffffffffff169050600160006107209190610802565b60006002819055506000600381905550809250505090565b60035481565b6040518060800160405280600073ffffffffffffffffffffffffffffffffffffffff1681526020016060815260200160608152602001600081525090565b82805461078890610e72565b90600052602060002090601f0160209004810192826107aa57600085556107f1565b82601f106107c357805160ff19168380011785556107f1565b828001600101855582156107f1579182015b828111156107f05782518255916020019190600101906107d5565b5b5090506107fe9190610826565b5090565b50805460008255600402906000526020600020908101906108239190610843565b50565b5b8082111561083f576000816000905550600101610827565b5090565b5b808211156108a557600080820160006101000a81549073ffffffffffffffffffffffffffffffffffffffff021916905560018201600061088491906108a9565b60028201600061089491906108a9565b600382016000905550600401610844565b5090565b5080546108b590610e72565b6000825580601f106108c757506108e6565b601f0160209004906000526020600020908101906108e59190610826565b5b50565b60006108fc6108f784610cf6565b610cc5565b90508281526020810184848401111561091457600080fd5b61091f848285610e30565b509392505050565b600082601f83011261093857600080fd5b81356109488482602086016108e9565b91505092915050565b60008135905061096081610fac565b92915050565b6000806040838503121561097957600080fd5b600083013567ffffffffffffffff81111561099357600080fd5b61099f85828601610927565b925050602083013567ffffffffffffffff8111156109bc57600080fd5b6109c885828601610927565b9150509250929050565b6000602082840312156109e457600080fd5b60006109f284828501610951565b91505092915050565b6000610a078383610b23565b905092915050565b610a1881610df4565b82525050565b610a2781610df4565b82525050565b610a3681610de2565b82525050565b6000610a4782610d36565b610a518185610d59565b935083602082028501610a6385610d26565b8060005b85811015610a9f5784840389528151610a8085826109fb565b9450610a8b83610d4c565b925060208a01995050600181019050610a67565b50829750879550505050505092915050565b6000610abc82610d41565b610ac68185610d6a565b9350610ad6818560208601610e3f565b610adf81610f9b565b840191505092915050565b6000610af582610d41565b610aff8185610d7b565b9350610b0f818560208601610e3f565b610b1881610f9b565b840191505092915050565b6000608083016000830151610b3b6000860182610a0f565b5060208301518482036020860152610b538282610ab1565b91505060408301518482036040860152610b6d8282610ab1565b9150506060830151610b826060860182610b8d565b508091505092915050565b610b9681610e26565b82525050565b610ba581610e26565b82525050565b610bbc610bb782610e26565b610ea4565b82525050565b6000610bce8286610bab565b602082019150610bde8285610bab565b602082019150610bee8284610bab565b602082019150819050949350505050565b6000602082019050610c146000830184610a2d565b92915050565b6000602082019050610c2f6000830184610a1e565b92915050565b6000608082019050610c4a6000830187610a1e565b8181036020830152610c5c8186610aea565b90508181036040830152610c708185610aea565b9050610c7f6060830184610b9c565b95945050505050565b60006020820190508181036000830152610ca28184610a3c565b905092915050565b6000602082019050610cbf6000830184610b9c565b92915050565b6000604051905081810181811067ffffffffffffffff82111715610cec57610ceb610f6c565b5b8060405250919050565b600067ffffffffffffffff821115610d1157610d10610f6c565b5b601f19601f8301169050602081019050919050565b6000819050602082019050919050565b600081519050919050565b600081519050919050565b6000602082019050919050565b600082825260208201905092915050565b600082825260208201905092915050565b600082825260208201905092915050565b6000610d9782610e26565b9150610da283610e26565b9250827fffffffffffffffffffffffffffffffffffffffffffffffffffffffffffffffff03821115610dd757610dd6610edf565b5b828201905092915050565b6000610ded82610e06565b9050919050565b6000610dff82610e06565b9050919050565b600073ffffffffffffffffffffffffffffffffffffffff82169050919050565b6000819050919050565b82818337600083830152505050565b60005b83811015610e5d578082015181840152602081019050610e42565b83811115610e6c576000848401525b50505050565b60006002820490506001821680610e8a57607f821691505b60208210811415610e9e57610e9d610f3d565b5b50919050565b6000819050919050565b6000610eb982610e26565b9150610ec483610e26565b925082610ed457610ed3610f0e565b5b828206905092915050565b7f4e487b7100000000000000000000000000000000000000000000000000000000600052601160045260246000fd5b7f4e487b7100000000000000000000000000000000000000000000000000000000600052601260045260246000fd5b7f4e487b7100000000000000000000000000000000000000000000000000000000600052602260045260246000fd5b7f4e487b7100000000000000000000000000000000000000000000000000000000600052604160045260246000fd5b6000601f19601f8301169050919050565b610fb581610e26565b8114610fc057600080fd5b5056fea2646970667358221220cff68dd4ae36231d86dfdd4103a4db5028fee7d9160eb6f43ad0827ba1363a7e64736f6c63430008000033",
  "linkReferences": {},
  "deployedLinkReferences": {}
}